:020000040800F2
:10000000000E002001010008870D0008750C000893
:10001000830D00086D010008D119000800000000E0
:10002000000000000000000000000000710F000848
:100030007702000800000000190E000801120008F5
:100040001B0100081B0100081B0100081B01000820
:100050001B0100081B0100081B0100081B01000810
:100060001B0100081B0100081B0100081B01000800
:100070001B0100081B0100081B0100081B010008F0
:100080001B0100081B0100081B0100081B010008E0
:100090001B0100081B0100081B0100081B010008D0
:1000A0001B0100081B0100081B0100081B010008C0
:1000B000D1130008F5130008291400081B010008DB
:1000C0001B0100081B0100081B0100081B010008A0
:1000D0001B0100081116000881160008F11600081F
:1000E0001B0100081B0100081B010008DFF80CD0F1
:1000F00000F02AF800480047F11A0008000E00201E
:100100000648804706480047FEE7FEE7FEE7FEE7B1
:10011000FEE7FEE7FEE7FEE7FEE7FEE771130008F5
:10012000ED00000830B505462A460B4612F8010BD3
:1001300013F8014B08B1A042F8D01CB1002802D03E
:100140006D1CF1E7284630BD064C074D06E0E0681F
:1001500040F0010394E8070098471034AC42F6D30E
:10016000FFF7C8FFB81C0008D81C000800BFFEE756
:1001700070B50446002501F04DFC08B9284670BD55
:1001800033480078F52801D02846F8E73048407811
:10019000A04201D02846F2E72E490978C91EC8B20C
:1001A0002B49491C00F05AF829498979884201D025
:1001B0002846E4E7052C20D008DC012C0FD0022CC7
:1001C0000ED0032C0DD0042C3DD115E0092C1AD0F3
:1001D0000B2C13D00C2C1FD02D2C34D12EE000BFB3
:1001E00000BF1B48007908B9012504E018480079D0
:1001F000072800D1012527E000BF00BF144800797F
:1002000000B9012520E01248007920B901251048E5
:10021000C0781149087017E00D480079012807D00F
:100220000B480079022803D009480079032804D13B
:1002300001250748C0780849087005E0044800799E
:1002400000B9012500E000BF00BF284697E7000085
:100250005E0000206E0000206F00002010B50246F6
:100260000B460020002103E05C5C60404C1CE1B2C6
:100270009142F9DB10BD704710B50446A0B201F001
:1002800011FC10BD1CB5044601208DF80000200AA9
:100290008DF80100E0B28DF8020001208DF8030016
:1002A00000208DF804006946052001F085F91CBD89
:1002B0001CB5044602208DF80000200A8DF80100CC
:1002C000E0B28DF8020001208DF8030000208DF8C7
:1002D00004006946052001F06FF91CBD1CB50446F9
:1002E00003208DF80000200A8DF80100E0B28DF89F
:1002F000020001208DF8030000208DF804006946FB
:10030000052001F059F91CBD30B5044604254FF411
:10031000302000F083F80546042D17D10C48006901
:1003200040F002000A49086108464461006940F053
:10033000400008614FF4302000F070F80546044892
:10034000006941F6FD71084001490861284630BD49
:100350000020024004200B49C96801F0010109B1E5
:1003600001200EE00749C96801F0040109B102202B
:1003700007E00449C96801F0100109B1032000E059
:1003800004207047002002400348006940F08000CC
:1003900001490861704700000020024070B5044622
:1003A0000D460426F00200F039F80646042E11D15D
:1003B0000948006940F00100074908612580F00202
:1003C00000F02CF806460448006941F6FE7108402A
:1003D00001490861304670BD00200240014608888E
:1003E000704730B503460C461546002207E003EB84
:1003F0004200FFF7F3FF24F81200501C82B2AA4219
:10040000F5DB30BD02480349486003484860704747
:100410002301674500200240AB89EFCD00B50246BD
:100420000423FFF797FF034603E0FFF793FF03461C
:10043000521E012B01D1002AF7D102B9052318461B
:1004400000BD00002DE9F05F054689461746B5F16D
:10045000006F04D305EB47001849884203D34FF0DF
:10046000FF30BDE8F09FFFF7CDFFA5F1006A4FEA2E
:100470009A284FF0006000EB882B5846FFF744FFA6
:100480000646042E00D010E000240BE039F81410CA
:1004900005EB4400FFF782FF0646042E00D004E07F
:1004A000601C84B2BC42F1DB00BFFFF76DFF042E7D
:1004B00002D04FF0FF30D4E70020D2E7000001085F
:1004C0001CB505208DF8000000208DF801008DF886
:1004D00002008DF803008DF804006946052001F044
:1004E0006BF81CBD1CB5044604208DF80000200AE2
:1004F0008DF80100E0B28DF8020000208DF80300B5
:100500008DF804006946052001F056F81CBD1CB5A5
:100510000C208DF8000000208DF801008DF80200FD
:100520008DF803008DF804006946052001F044F8B9
:100530001CBD000008B50121042000F08FFC102034
:10054000ADF8000028208DF8030003208DF802008C
:1005500069460A4800F0F6FA0121042000F07EFC0A
:100560000220ADF8000003208DF8020010208DF865
:1005700003006946014800F0E5FA08BD00080140A3
:1005800070B50025F748007C062877D2DFE800F038
:10059000031645F076EFF448006870B1F148006842
:1005A000FA30F04988600221F04800F061FB012038
:1005B000EC4908740020EE490870D0E1E9488068F1
:1005C00050BB00F083FA0446012C0CD1E5480068CA
:1005D000C830E44988600020487408740221E34868
:1005E00000F044FB18E0DF4800686430DD498860B3
:1005F000DF4801780078401CDD4A107004290BDBCD
:100600000221DA4800F032FB0020D649087408467F
:10061000006800F5FA708860A1E1D248407C0728A4
:1006200076D2DFE800F004472C7A95B2E300CD489B
:10063000408A082807DD0020CA4908740846006877
:10064000FA30886070BDC8480068B0B1C54880689D
:1006500098B90221C54800F00BFBFA20C149886017
:100660000020C3490870BF48408A401CBD494882E9
:10067000022048740020BF490870C4E06EE1B94808
:100680008068B0B9BB480078401CBA49087000F0D7
:10069000D9F918B90120B34948740AE0B54800787F
:1006A000082803DC3220AF49886002E00120AD4910
:1006B0004874A8E0AB48806848BBAD480078401C4F
:1006C000AB490870A749488A00F079F90446012C23
:1006D0000DD10020A64908704FF49670A14988609A
:1006E000032048740221A14800F0C0FA14E0A04899
:1006F000007804280DDB9B48408A401E99494882B7
:1007000002219A4800F0B2FA00209649487403E0AA
:1007100078E064209349886075E093480068B0B140
:100720009048806898B90221904800F0A1FAFA2018
:100730008C49886000208E4908708A48408A401C95
:10074000884948820420487400208A4908705AE089
:1007500084488068C0B987480078401C8549087083
:1007600000F070F928B905207E4948740CE095E046
:100770004BE080480078082803DC32207949886003
:1007800002E00520774948743DE07648806840BB28
:100790007449488A00F013F90446012C07D17149C5
:1007A000C883062048744FF4967088601DE0704836
:1007B00001780078401C6E4A1070042912DB6949E8
:1007C000498A481E00F0F2F86648408A801E654952
:1007D00048820221654800F049FA00206149087406
:1007E000487402E03C205F4988600CE05D48806806
:1007F00038B902215D4800F039FA002059490874DF
:10080000487400E000BF00BFA9E05648407C20B11A
:10081000012812D006283ED131E05248806858B9EC
:100820000221524800F024FA0020514908700120AA
:100830004C494874FA2088602EE04A48806800B12C
:100840002AE000F099F80446012C09D1002045491E
:1008500048820120C88306204874642088600DE027
:1008600043480078401C4249087064203D49886034
:100870003F480078032801DB062048740CE0394823
:10088000806838B90221394800F0F0F90020354974
:100890000874487400E000BF00BF60E03148806821
:1008A00000B1CFE62F48407C30B1012819D006288E
:1008B00034D007284FD140E02A48806880B92D48BD
:1008C0000078401C2B49087000F0BCF818B90120D2
:1008D0002449487404E03220224988600620487484
:1008E0003AE02048806800B136E000F0D1F80546D3
:1008F000681C78B11B48408AA8420BD00A2D04DC42
:1009000018494D820120C88304E00020154948821F
:100910000120C8830720134948741DE011488068EE
:1009200050B914480078142803DB01200D4948749D
:1009300002E000200B4948740EE00A48806848B97C
:1009400002210A4800F092F9002006490874487410
:100950000849087000E000BF00BF00E000BF00BF12
:1009600000BF6FE67800002010012142000801401E
:100970005C0000205D00002010B5FFF7A1FD052000
:10098000FFF7F6FB10BD00000021064A1180002091
:1009900003E00021044A1154401CB0F5C87FF8DB85
:1009A00070470000380000209C00002010B504466D
:1009B0002046FFF797FD0420FFF7DAFB10BD10B5C6
:1009C00004462046FFF75EFC0120FFF7D1FB08B983
:1009D000002010BD6420FFF74FFC2046FFF768FCA5
:1009E0000220FFF7C5FB08B90020F2E76420FFF7FB
:1009F00043FC2046FFF75CFC0220FFF7B9FB08B977
:100A00000020E6E72046FFF753FC0220FFF7B0FB8B
:100A100008B90020DDE76420FFF72EFC2046FFF731
:100A200047FC0220FFF7A4FB08B90020D1E76420AF
:100A3000FFF722FC2046FFF751FC0320FFF798FB4D
:100A4000C7E700001CB52D208DF8000000208DF8B0
:100A500001008DF802008DF803008DF8040069464E
:100A6000052000F0A9FD2D20FFF782FB50B10748BB
:100A7000C0789DF80210884201D100201CBD4FF0C3
:100A8000FF30FBE74FF0FF30F8E700005E0000208A
:100A90001CB509208DF8000000208DF801008DF8AC
:100AA00002008DF803008DF804006946052000F06F
:100AB00083FD0920FFF75CFB10B1034800781CBDE3
:100AC0004FF0FF30FBE700006F00002010B5FFF78C
:100AD0001EFD0C20FFF74CFB10BD0EB50121084692
:100AE00000F09CF900F01DF84FF47A70ADF80400A6
:100AF0004720ADF800000020ADF8020069464FF035
:100B0000804000F007FD0121880700F0D7FC01229A
:100B10001146900700F0F2FC0121880700F0D1FC9B
:100B20000EBD08B51C208DF8000000208DF80100D6
:100B300002208DF8020001208DF80300684600F0C5
:100B400029F908BD2DE9F0410246002500260020C4
:100B500000230024002791F803C00CF00F0591F842
:100B600003C00CF0100CBCF1000F03D091F802C0D0
:100B70004CEA050591F800C0BCF1000F31D01468B3
:100B800000202BE04FF0010C0CFA00F3B1F800C08C
:100B90000CEA03069E4220D183004FF00F0C0CFAA2
:100BA00003F7BC4305FA03FC4CEA040491F803C0C4
:100BB000BCF1280F06D14FF0010C0CFA00FCC2F872
:100BC00014C00AE091F803C0BCF1480F05D14FF002
:100BD000010C0CFA00FCC2F810C0401C0828D1D34C
:100BE0001460B1F800C0BCF1FF0F34DD5468002080
:100BF0002EE000F1080C4FF0010808FA0CF3B1F8F0
:100C000000C00CEA03069E4221D183004FF00F0C76
:100C10000CFA03F7BC4305FA03FC4CEA040491F810
:100C200003C0BCF1280F05D100F1080C08FA0CF83C
:100C3000C2F8148091F803C0BCF1480F07D100F14D
:100C4000080C4FF0010808FA0CF8C2F81080401C9C
:100C50000828CED35460BDE8F08102460020936896
:100C60000B400BB1012000E000207047416170474C
:100C70000161704700BFFEE74AF6AA2001490860FB
:100C8000704700000030004038B50546F5208DF86B
:100C9000000000208DF801000D49088012E00120BD
:100CA00000F000FF0A48008800F4004050B1002026
:100CB0000749088069460748FFF734FA04460CB133
:100CC000204638BD681E80B2051EE8D100BFF8E797
:100CD000380000209C00002008B50121082000F009
:100CE000BDF84FF4E040ADF8000003208DF802009D
:100CF00048208DF8030069460148FFF723FF08BD2F
:100D0000000C014010B54FF480511348FFF7A5FFC8
:100D100038B902201149087400204874FA2088600C
:100D200019E04FF400510C48FFF797FF38B9032042
:100D30000A49087400204874FA2088600BE04FF4D8
:100D400080410548FFF789FF28B90020034908744E
:100D50004874FA20886010BD000C01407800002023
:100D6000704710B50446204600F034FE10BD10B5A3
:100D700000F08AF9FFF7F4FFFFF7C4FFFFF700FC6C
:100D800010BD00BFFEE7704710B54FF4A06000F043
:100D900039F810BD70B5002100230F22C47804B3C8
:100DA000154C246804F4E064C4F5E064210AC1F140
:100DB0000403CA40447804FA03F1847814402143C0
:100DC00009010E4C0678A155047804F01F05012492
:100DD000AC4005786D11AD0005F1E025C5F8004186
:100DE00009E0047804F01F050124AC40044D0678A6
:100DF000761145F8264070BD0CED00E000E400E0FF
:100E000080E100E002490143024A1160704700009E
:100E10000000FA050CED00E07047000029B1064A19
:100E2000D2690243044BDA6104E0034AD269824387
:100E3000014BDA61704700000010024029B1064AF8
:100E400012690243044B1A6104E0034A12698243A7
:100E5000014B1A61704700000010024029B1064A98
:100E600092690243044B9A6104E0034A9269824307
:100E7000014B9A61704700000010024029B1064AF8
:100E8000D2680243044BDA6004E0034AD26882432A
:100E9000014BDA60704700000010024030B50021BD
:100EA0000022002400232D4D6D6805F00C0121B1B6
:100EB000042905D0082923D105E0294D056022E049
:100EC000274D05601FE0254D6D6805F47012234D18
:100ED0006D6805F48034022505EB92421CB9214D62
:100EE000554305600BE01D4D6D6805F400351DB1DF
:100EF0001C4D5543056002E0194D5543056002E065
:100F0000174D056000BF00BF144D6D6805F0F0017E
:100F10000909154D6B5C0568DD4045600F4D6D6836
:100F200005F4E061090A104D6B5C4568DD408560A1
:100F30000A4D6D6805F46051C90A0B4D6B5C45683C
:100F4000DD40C560054D6D6805F44041890B074DD6
:100F50006B5CC568B5FBF3F5056130BD0010024060
:100F600000127A0000093D00240000203400002017
:100F7000704710B500F002F810BD00000CB500205D
:100F8000019000903348006840F480303149086097
:100F900000BF3048006800F4003000900198401C09
:100FA0000190009818B90198B0F5A06FF1D12948C7
:100FB000006800F4003010B10120009001E0002032
:100FC00000900098012843D12348006840F01000A9
:100FD000214908600846006820F0030008600846C0
:100FE000006840F0020008601A48406819494860EB
:100FF0000846406848600846406840F480604860A1
:101000000846406820F47C1048600846406840F478
:10101000E81048600846006840F08070086000BF33
:101020000C48006800F000700028F9D009484068BA
:1010300020F00300074948600846406840F002007D
:10104000486000BF0348406800F00C000828F9D150
:101050000CBD0000001002400020024010B502212B
:101060000748FFF705FE00F01FF9FF200549088338
:1010700005200874FA2088600020C86010BD0000B8
:10108000000801407800002010B53848408C00B9B5
:1010900010BD3748007830B101280FD0022828D081
:1010A00003285BD152E03148408A304948830846E2
:1010B000C18A818301202E49087053E02B49898A17
:1010C0002C4A52F82100022228491A31FFF7BAF9B6
:1010D00058B129480078401C27490870022024494B
:1010E000087064202149088402E003202049087028
:1010F00038E01E48008C20BB01201D4908701E48A6
:1011000001780078401C1C4A107007291DDB174825
:10111000808A401C80B215498882062812DA002491
:101120000DE014490122086810491431FFF78AF9CB
:1011300000B906E0142000F0B5FC601CC4B2032C1A
:10114000EFDB02E003200A4908700BE000200749AA
:101150004884074908700849087003E003200449DF
:10116000087000BF00BF00BF92E7000078000020B9
:101170005A000020400000205B000020144908882D
:10118000411C134A1180B0F57A7F0FDB0020114615
:1011900008801048C08B48B10E48C08B401E0D49D6
:1011A000C8830846C08B08B9012048840948008CD0
:1011B00020B10848008C401E064908840548806814
:1011C00020B104488068401E0249886070470000D2
:1011D0000E00002078000020042808D14FF0E02104
:1011E000096941F004014FF0E022116107E04FF07E
:1011F000E021096921F004014FF0E02211617047FC
:1012000010B520480088401C1E4908801E480088F0
:10121000401C1D4908801D480088401C1B4908804F
:101220001B48008820B11A480088401E18490880D1
:1012300018480088401C80B216490880B0F57A7FB3
:101240001EDB0020088014480078C8B1FFF714FDA9
:1012500012480068401C114908600A2810D9002073
:10126000086000BF0E48006800F4E0600D490843C4
:10127000001D0B490860BFF34F8F00BF00BFFEE7A2
:1012800010BD0000080000200A0000200C00002013
:101290003C00002058000020000000200400002036
:1012A0000CED00E00000FA0510B52F490868FFF7C3
:1012B00095F82E4988820846808A4FF6FF71884249
:1012C00006D02A48808A062802DA2848808A18BB75
:1012D00001202649888200240CE023490122086865
:1012E00022491431FFF7AEF800B905E0142000F0F0
:1012F000D9FB641C082CF0DB00BF00211B48818354
:1013000000201A494883898A174A52F8210002228C
:1013100016491A31FFF796F81449898A124A52F889
:101320002100022211491A31FFF75BF80F48408B68
:101330000E4948820846808BC8820846408A0A289F
:1013400010DD00204882002108488183408A074937
:101350004883898A044A52F82100022203491A313B
:10136000FFF770F810BD000040000020780000205A
:1013700010B51348006840F00100114908600846A4
:101380004068104908400E494860084600680E4908
:1013900008400B4908600846006820F48020086077
:1013A0000846406820F4FE0048604FF41F00886043
:1013B000FFF7DFFD4FF000600449086010BD00003A
:1013C000001002400000FFF8FFFFF6FE08ED00E00D
:1013D00010B50121880700F080F840B1012188078D
:1013E00000F06CF802480068401C0149086010BD1C
:1013F0007800002010B50121094800F06EF868B1AE
:101400000848008840F4004006490880012104484B
:1014100000F054F80021024800F053F810BD00001D
:10142000000400407000002010B50121094800F0C0
:1014300054F868B10848008840F400400649088024
:101440000121044800F03AF80021024800F039F880
:1014500010BD000000080040380000207FB50546A0
:101460000C4601210420FFF7D9FCADF80450ADF87B
:1014700000400020ADF80600ADF8020069460E48B5
:1014800000F048F8012211460B4800F037F801211E
:10149000094800F016F81E208DF80C0000208DF889
:1014A0000D0002208DF80E0001208DF80F0003A81A
:1014B000FFF770FC7FBD000000080040CA430282B5
:1014C000704721B1028842F00102028004E00288E4
:1014D0004FF6FE731A400280704730B50246002076
:1014E00000230024158A05EA0103958905EA010411
:1014F00013B10CB1012000E0002030BD1AB1838986
:101500000B43838102E083898B438381704781840D
:1015100070470000002202881D4B98420ED01D4BE0
:1015200098420BD0B0F1804F08D01B4B984205D0A9
:101530001A4B984202D01A4B984204D14FF68F733F
:101540001A404B881A43174B984207D0164B9842C3
:1015500004D04FF6FF431A40CB881A4302808B8891
:1015600083850B8803850A4B98420BD0094B984220
:1015700008D00E4B984205D00D4B984202D00D4B2F
:10158000984201D10B7A03860123838270470000C1
:10159000002C0140003401400004004000080040DD
:1015A000000C0040001000400014004000400140CA
:1015B00000440140004801402DE9F04104460E4638
:1015C00000250027F5201049087000BF04E0715D78
:1015D000681C0D4A11546D1CA542F8D331462046B3
:1015E000FEF73CFE084A611C5054F521A01C115422
:1015F000E71C06490F70FFF7C7F9F9B2024800F07F
:10160000DAF9BDE8F0810000660000206E000020DD
:1016100010B540F22551164800F009F9F8B1144808
:1016200000F0C0F9C4B21348008800F40040B0B91B
:1016300010480088B0F5C87F12DA00210E48FFF785
:1016400066FF0C48008818B901210B48FFF739FFE5
:1016500008490888411C074A118008490C5405E0D4
:101660000448008840F400400249088010BD000092
:10167000003801407000002000040040BC0300203E
:1016800010B540F22551164800F0D1F8F8B11448D1
:1016900000F088F9C4B21348008800F40040B0B9E3
:1016A00010480088B0F5C87F12DA00210E48FFF715
:1016B0002EFF0C48008818B901210B48FFF701FFE5
:1016C00008490888411C074A118008490C5405E064
:1016D0000448008840F400400249088010BD000022
:1016E0000044004038000020000800409C0000201A
:1016F00010B540F22551164800F099F8F8B1144899
:1017000000F050F9C4B21348008800F40040B0B9AA
:1017100010480088B0F5C87F12DA00210E48FFF7A4
:10172000F6FE0C48008818B901210B48FFF7C9FEE6
:1017300008490888411C074A118008490C5405E0F3
:101740000448008840F400400249088010BD0000B1
:10175000004800407200002000080040DC06002025
:1017600021B1828942F40052828104E082894DF6DF
:10177000FF731A408281704710B5044620488442A6
:1017800009D101218803FFF779FB00214FF4804044
:10179000FFF774FB32E01B48844209D10121480461
:1017A000FFF74CFB00214FF40030FFF747FB25E02B
:1017B0001548844209D101218804FFF73FFB00212D
:1017C0004FF48020FFF73AFB18E01048844209D11B
:1017D0000121C804FFF732FB00214FF40020FFF77E
:1017E0002DFB0BE00A48844208D101210805FFF7D0
:1017F00025FB00214FF48010FFF720FB10BD0000F7
:10180000003801400044004000480040004C0040C7
:101810000050004002460020B1F5007F00D100BF1B
:1018200013880B400BB1012000E00020704770B519
:101830000246002400230025002040F66A16B1422B
:1018400000D100BFC1F3421501F01F03012606FAC3
:1018500003F3012D02D19689334006E0022D02D117
:10186000168A334001E0968A33400C12012606FAAC
:1018700004F41688344013B10CB1012000E00020BC
:1018800070BDF0B50346002400260025002040F678
:101890006A17B94200D100BF1846C1F3421401F0E3
:1018A0001F06012707FA06F5012C01D10C3004E0D0
:1018B000022C01D1103000E014301AB107682F4318
:1018C000076002E00768AF430760F0BD2DE9F0470D
:1018D00086B005460E460024A24600BFA14600275A
:1018E000B08900B100BF2F462C8A4CF6FF7004402F
:1018F000F08804432C82AC894EF6F3100440B08883
:1019000031890843718908430443AC81AC8A4FF69E
:10191000FF400440B0890443AC8201A8FFF7BEFA3F
:101920001F48874202D1DDF810A001E0DDF80CA0CD
:10193000A88900F4004040B10AEBCA0000EB0A108D
:1019400031684900B0FBF1F807E00AEBCA0000EB90
:101950000A1031688900B0FBF1F86420B8FBF0F0A0
:1019600004012009642101FB1089A88900F40040CA
:1019700040B1322000EBC900B0FBF1F000F00700ED
:10198000044308E0322000EB09106421B0FBF1F0C1
:1019900000F00F0004432C8106B0BDE8F087000082
:1019A0000038014001468888C0F308007047C1F341
:1019B00008028280704770B504460D4600BF14F8D7
:1019C000010BFFF7CEF9681EC0B2051EF7D170BD3E
:1019D00000BFFEE710B5044621460548FFF7E7FFC4
:1019E00000BF80210248FFF715FF0028F9D010BD85
:1019F0000044004010B5044621460548FFF7D7FFD4
:101A000000BF80210248FFF705FF0028F9D010BD74
:101A10000048004070B54FF47A60FFF735F905468D
:101A200055B1002404E0285D04490855601CC4B287
:101A3000082CF8DB012070BD0020FCE75E000020D0
:101A400002E008C8121F08C1002AFAD17047704787
:101A5000002001E001C1121F002AFBD170470000E5
:101A600010B56FF00400FFF7B7FB0A4800680A4999
:101A7000B0FBF1F0094908700846007800EB40011E
:101A8000C1EBC0104FF6FF7101EAC00004490880A5
:101A900010BD00001000002000127A007400002029
:101AA000760000200146114A12884A434FF0E02395
:101AB0005A6100229A611A46126942F001021A61C3
:101AC00000BF4FF0E022106900F001021AB100F4EB
:101AD0008032002AF5D04FF0E022126922F0010294
:101AE0004FF0E0231A6100229A61704776000020CF
:101AF000FFF7B6FFFFF748F94FF4E13000F088F840
:101B00006620FFF777FFFEF715FDFFF7E5F8FFF713
:101B1000A5FA4FF4964000F013F8FEF7DEFF0BE055
:101B2000FFF725F90548006830B104480068401EF9
:101B300002490860FFF722FBF2E70000780000206E
:101B400010B586B0044601210420FFF787F9012172
:101B50004804FFF763F92948FFF70EFE0420ADF8AB
:101B6000140003208DF8160018208DF8170005A921
:101B70002348FEF7E7FF0820ADF8140048208DF851
:101B8000170005A91F48FEF7DDFF01940020ADF8FE
:101B90000800ADF80A00ADF80C00ADF810000C20FC
:101BA000ADF80E0001A91548FFF790FE012113487A
:101BB000FFF7D6FD012240F225511048FFF761FEE4
:101BC00026208DF8000002208DF8010006208DF8F7
:101BD000020001208DF803006846FFF7DBF841F6AC
:101BE0001F416320FFF73AFC0020074908800021CD
:101BF0000648FFF766FC06B010BD00000044004038
:101C000000080140000C014038000020000800409E
:101C100010B586B0044601218804FFF7FFF80121C2
:101C20000920FFF71BF94FF48060ADF81400032082
:101C30008DF8160018208DF8170005A91C48FEF72E
:101C400081FF4FF40060ADF8140048208DF81700B4
:101C500005A91748FEF776FF01940020ADF80800AB
:101C6000ADF80A00ADF80C00ADF810000C20ADF88E
:101C70000E0001A90F48FFF729FE01210D48FFF7CB
:101C80006FFD012240F225510A48FFF7FAFD272097
:101C90008DF8000003208DF801008DF8020001206E
:101CA0008DF803006846FFF775F806B010BD000018
:101CB000000C014000480040D81C00080000002033
:101CC00078000000401A0008501D0008780000202D
:101CD000880D0000501A00080000000000000000FD
:101CE000000000000000000000A24A040000000004
:101CF00000000000010203040607080900000000BC
:101D0000010203040102030406070809020406088D
:101D1000000000000000000000E4000800E80008E7
:101D200000EC000800F0000800F4000800F80008CB
:101D300000000000000000000000000000000000A3
:101D40000000000000000000000000000000000093
:04000005080000ED02
:00000001FF
